:100000000C9434000C943E000C943E000C943E0082
:100010000C943E000C943E000C943E000C943E0068
:100020000C943E000C943E000C943E000C943E0058
:100030000C943E000C943E000C943E000C943E0048
:100040000C943E000C943E000C943E000C943E0038
:100050000C943E000C943E000C943E000C943E0028
:100060000C943E000C943E0011241FBECFEFD8E04C
:10007000DEBFCDBF0E9444000C945F000C940000D2
:1000800084B1826084B908950E94400085B18D7F5B
:1000900085B92FEF83ED90E3215080409040E1F748
:1000A00000C0000085B1826085B92FEF83ED90E339
:1000B000215080409040E1F700C00000E7CFF89465
:0200C000FFCF70
:00000001FF
