S01A000069724F62737461636C654465746563746F722E73726563C8
S11300000C9434000C943E000C943E000C943E007E
S11300100C943E000C943E000C943E000C943E0064
S11300200C943E000C943E000C943E000C943E0054
S11300300C943E000C943E000C943E000C943E0044
S11300400C943E000C943E000C943E000C943E0034
S11300500C943E000C943E000C943E000C943E0024
S11300600C943E000C943E0011241FBECFEFD8E048
S1130070DEBFCDBF0E944A000C9468000C940000BF
S113008084B18D7F84B984B18C6084B985B1826078
S113009085B908950E944000199B0DC085B1837FE6
S11300A085B92FEF89E698E1215080409040E1F72F
S11300B000C00000F1CF85B18C6085B92FEF89E6CF
S11300C098E1215080409040E1F700C00000E4CF67
S10700D0F894FFCFCE
S9030000FC
