S01A000069724F62737461636C654465746563746F722E73726563C8
S11300000C9434000C943E000C943E000C943E007E
S11300100C943E000C943E000C943E000C943E0064
S11300200C943E000C943E000C943E000C943E0054
S11300300C943E000C943E000C943E000C943E0044
S11300400C943E000C943E000C943E000C943E0034
S11300500C943E000C943E000C943E000C943E0024
S11300600C943E000C943E0011241FBECFEFD8E048
S1130070DEBFCDBF0E9446000C945A000C940000D1
S1130080219884B18C6084B9299A08950E94400013
S1130090199B03C085B1837F02C085B18C6085B98B
S11300A02FEF89E698E1215080409040E1F700C0AD
S10B00B00000EECFF894FFCF2D
S9030000FC
